:100000000C9462000C948A000C948A000C948A0070
:100010000C948A000C948A000C948A000C948A0038
:100020000C948A000C948A000C948A000C948A0028
:100030000C948A000C948A000C948A000C948A0018
:100040000C9453050C948A000C9421050C94FB0429
:100050000C948A000C948A000C948A000C948A00F8
:100060000C949D050C948A000000000024002700D9
:100070002A0000000000250028002B0000000000DE
:1000800023002600290004040404040404040202DA
:100090000202020203030303030301020408102007
:1000A0004080010204081020010204081020000012
:1000B0000008000201000003040700000000000027
:1000C0000000BC0611241FBECFEFD8E0DEBFCDBFBD
:1000D00011E0A0E0B1E0E2E4F1E102C005900D9290
:1000E000A235B107D9F722E0A2E5B1E001C01D9227
:1000F000AA3CB207E1F710E0C2E6D0E004C02197C5
:10010000FE010E949908C136D107C9F70E94040771
:100110000C949F080C94000008950895AF92BF922C
:10012000CF92DF92EF92FF920F931F93CF93DF93C3
:100130006C017B018B01040F151FEB015E01AE18F2
:10014000BF08C017D10759F06991D601ED91FC9114
:100150000190F081E02DC6010995892B79F7C50141
:10016000DF91CF911F910F91FF90EF90DF90CF9093
:10017000BF90AF900895FC01538D448D252F30E042
:10018000842F90E0821B930B541710F0CF960895A4
:1001900001970895FC01918D828D981761F0A28DD1
:1001A000AE0FBF2FB11D5D968C91928D9F5F9F7397
:1001B000928F90E008958FEF9FEF0895FC01918D4D
:1001C000828D981731F0828DE80FF11D858D90E0BA
:1001D00008958FEF9FEF0895FC01918D228D892F57
:1001E00090E0805C9F4F821B91098F73992708953F
:1001F00085E192E00E94EC0021E0892B09F420E0E7
:10020000822F089580E090E0892B29F00E94F80069
:1002100081110C9400000895FC01A48DA80FB92F42
:10022000B11DA35ABF4F2C91848D90E001968F731E
:100230009927848FA689B7892C93A089B1898C913D
:10024000837080648C93938D848D981306C002888C
:10025000F389E02D80818F7D80830895EF92FF9256
:100260000F931F93CF93DF93EC0181E0888F9B8DD9
:100270008C8D98131AC0E889F989808185FF15C093
:100280009FB7F894EE89FF896083E889F9898081B6
:100290008370806480839FBF81E090E0DF91CF9185
:1002A0001F910F91FF90EF900895F62E0B8D10E0A7
:1002B0000F5F1F4F0F731127E02E8C8D8E110CC016
:1002C0000FB607FCFACFE889F989808185FFF5CF61
:1002D000CE010E940C01F1CFEB8DEC0FFD2FF11D33
:1002E000E35AFF4FF0829FB7F8940B8FEA89FB899E
:1002F00080818062CFCFCF93DF93EC01888D8823FC
:10030000B9F0AA89BB89E889F9898C9185FD03C078
:10031000808186FD0DC00FB607FCF7CF8C9185FF5D
:10032000F2CF808185FFEDCFCE010E940C01E9CF95
:10033000DF91CF910895833081F028F4813099F0D6
:100340008230A9F008958730A9F08830C9F0843050
:10035000B1F4809180008F7D03C0809180008F7701
:1003600080938000089584B58F7784BD089584B507
:100370008F7DFBCF8091B0008F778093B000089580
:100380008091B0008F7DF9CFCF93DF93282F30E09D
:10039000F901E255FF4F8491F901E656FF4FD491E0
:1003A000F901EA57FF4FC491CC23A1F081110E94BB
:1003B0009B01EC2FF0E0EE0FFF1FE458FF4FA591DB
:1003C000B491EC91ED2381E090E009F480E0DF91BD
:1003D000CF91089580E090E0FACF1F93CF93DF9301
:1003E000282F30E0F901E255FF4F8491F901E656DC
:1003F000FF4FD491F901EA57FF4FC491CC23A9F0E4
:10040000162F81110E949B01EC2FF0E0EE0FFF1FD1
:10041000EE58FF4FA591B4918FB7F894EC9111115C
:1004200008C0D095DE23DC938FBFDF91CF911F9161
:100430000895DE2BF8CFCF93DF9390E0FC01E656D2
:10044000FF4F24918A579F4FFC0184918823D1F05C
:1004500090E0880F991FFC01E859FF4FA591B491D6
:10046000FC01EE58FF4FC591D49161110EC09FB7AA
:10047000F8948C91E22FE0958E238C932881E223CF
:10048000E8839FBFDF91CF9108958FB7F894EC91E7
:10049000E22BEC938FBFF6CF3FB7F894809109021F
:1004A00090910A02A0910B02B0910C0226B5A89B74
:1004B00005C02F3F19F00196A11DB11D3FBFBA2FF6
:1004C000A92F982F8827BC01CD01620F711D811DB6
:1004D000911D42E0660F771F881F991F4A95D1F73B
:1004E00008958F929F92AF92BF92CF92DF92EF9238
:1004F000FF924B015C010E944C026B017C010E9447
:100500004C026C197D098E099F09683E7340810574
:100510009105A8F321E0821A9108A108B10888EE9C
:10052000C80E83E0D81EE11CF11C81149104A104C3
:10053000B10429F7FF90EF90DF90CF90BF90AF907C
:100540009F908F9008952091BA01260F3327331F73
:1005500021323105ECF42091DE01FC0190E080E0D5
:10056000243069F082E00895A091BA012191AC0194
:1005700046565E4FA40FB52FB11D2C9301968617DA
:1005800098F38091BA01680F6093BA0180E00895F2
:1005900081E008951092DE0181E08093E0011092E5
:1005A000DF0161E082E10E94ED0161E083E10E94F0
:1005B000ED01E9EBF0E080818E7F808380818D7F8B
:1005C000808388E48093B80085E48093BC0008951C
:1005D000CF93DF9391E0909399018823B9F0C09174
:1005E000B800D091BA008091BC008A7B8093BC0097
:1005F00060E082E10E94ED0160E083E10E94ED0194
:100600000E94CA02D093BA00C093B800DF91CF9184
:1006100008950895E091140280911302E81730F4D0
:10062000F0E0EC58FE4F808190E008958FEF9FEF4F
:10063000089590911402809113022FEF3FEF9817C5
:1006400048F4E92FF0E0EC58FE4F208130E09F5F46
:1006500090931402C901089580911302909114029D
:10066000891B990B0895CF92DF92EF92FF920F931F
:100670001F93CF93DF937C01CB018A0120917301FB
:10068000222389F0EB016B01C40ED51ECC15DD05CC
:1006900069F06991D701ED91FC910190F081E02D15
:1006A000C7010995F3CF642F0E94A302C801DF910F
:1006B000CF911F910F91FF90EF90DF90CF90089511
:1006C000CF93DF931F92CDB7DEB76983209173017B
:1006D0002223F9F020911102203258F021E030E07D
:1006E000FC013383228390E080E00F90DF91CF9173
:1006F000089580911202E82FF0E0ED5AFE4F9981A3
:1007000090838F5F809312028093110281E090E0CA
:10071000ECCF61E0CE0101960E94A302F7CFCF9209
:10072000DF92EF92FF920F931F93CF93DF93FC0121
:10073000C48121E020937301C093520110921202F0
:10074000109211028385682B82EB92E00E94600375
:10075000D0911102D13208F092C00E944C026B017C
:100760007C018091DE01811165C082E08093DE0111
:1007700081E08093E0018FEF8093DD01109202020F
:10078000D0930102A3E5B1E0E1EEF1E080E0D813FF
:1007900085C01092030280910302CC0FC82BC09336
:1007A00003028091DF01813009F07CC01092DF01EB
:1007B0000E944C026B017C01809103028093BB007C
:1007C0008091950190919601A0919701B091980127
:1007D000892B8A2B8B2B99F00E944C02009195015A
:1007E0001091960120919701309198016C197D0923
:1007F0008E099F090617170728073907E0F180912E
:10080000BC0083FDD9CF85EC8093BC000E944C02D4
:100810006B017C018091DE01823009F445C080913A
:10082000DD018F3F61F18091DD01803241F18091E6
:10083000DD0125C08091950190919601A0919701CD
:10084000B0919801892B8A2B8B2B09F48ACF0E94B7
:100850004C020091950110919601209197013091E1
:1008600098016C197D098E099F090617170728073B
:10087000390708F076CF809194010E94E802109227
:1008800012021092110210927301DF91CF911F9109
:100890000F91FF90EF90DF90CF9008959D919193ED
:1008A0008F5F75CF85EEB0CF8091950190919601C5
:1008B000A0919701B0919801892B8A2B8B2B09F479
:1008C000A9CF0E944C0200919501109196012091B0
:1008D0009701309198016C197D098E099F090617BF
:1008E00017072807390708F095CFC5CF089590E07E
:1008F00080E00895FC0101900020E9F73197AF01F5
:10090000481B590BBC018EEB92E00C948E0085EDD8
:100910008093BC008091950190919601A0919701E0
:10092000B09198010796A11DB11D23E0B695A7953A
:10093000979587952A95D1F72091BC0024FD03C097
:100940001092DE01089540919501509196016091B9
:10095000970170919801452B462B472B69F300971F
:10096000A105B10541F025E32A95F1F700000197B3
:10097000A109B109E1CF809194010C94E8020F9391
:100980001F93CF938C01C62F0E948F036C2F64603E
:10099000C8010E948F036C2F6B7FC8010E948F03D8
:1009A00083EC90E00197F1F7CF911F910F9108959B
:1009B0000F931F93CF93DF938C01D62FC42F607FAB
:1009C000642B0E94BF0480E1D89FB00111246C2BDE
:1009D000C801DF91CF911F910F910C94BF0440E0AB
:1009E00060E88EEB92E00C94D80441E00E94D804B9
:1009F00081E090E008951F920F920FB60F9211249C
:100A00002F933F934F935F936F937F938F939F9316
:100A1000AF93BF93EF93FF9385E192E00E940C01A7
:100A2000FF91EF91BF91AF919F918F917F916F91C6
:100A30005F914F913F912F910F900FBE0F901F909C
:100A400018951F920F920FB60F9211242F938F9328
:100A50009F93EF93FF93E0912502F091260280810E
:100A6000E0912B02F0912C0282FD1BC090818091BD
:100A70002E028F5F8F7320912F02821741F0E09139
:100A80002E02F0E0EB5EFD4F958F80932E02FF91DA
:100A9000EF919F918F912F910F900FBE0F901F900C
:100AA00018958081F4CF1F920F920FB60F921124E8
:100AB0002F933F938F939F93AF93BF9380910502A2
:100AC00090910602A0910702B091080230910402B1
:100AD00023E0230F2D3758F50196A11DB11D20935A
:100AE00004028093050290930602A0930702B0933C
:100AF00008028091090290910A02A0910B02B09124
:100B00000C020196A11DB11D8093090290930A0267
:100B1000A0930B02B0930C02BF91AF919F918F9164
:100B20003F912F910F900FBE0F901F90189526E8C0
:100B3000230F0296A11DB11DD2CF1F920F920FB6A7
:100B40000F9211242F933F934F935F936F937F9353
:100B50008F939F93AF93BF93EF93FF938091B900CF
:100B6000887F803609F44AC0F0F5883209F4A7C0BE
:100B700018F5803109F49BC0B8F4882309F4F9C052
:100B8000883009F494C0FF91EF91BF91AF919F918C
:100B90008F917F916F915F914F913F912F910F9026
:100BA0000FBE0F901F901895883109F488C08032CD
:100BB00051F78093DD0114C0803409F49DC040F4E6
:100BC0008033B9F38833F9F68093DD0185ECB0C04A
:100BD000803509F485C0883509F496C0883499F6C3
:100BE0000E948704D0CF883909F48CC038F5883743
:100BF00029F050F4883611F0803729F683E080938D
:100C0000DE011092DC0157C0883809F47BC08039BE
:100C100019F0803809F0B7CF8091DC01803208F0FC
:100C200071C0E091DC0181E08E0F8093DC01809146
:100C3000BB00F0E0E454FE4F80833DC0803B39F0C0
:100C4000E0F4803A09F479C0883A09F09CCF84E056
:100C50008093DE011092BB011092BA01E0910F0265
:100C6000F091100209958091BA0181110FC081E0C5
:100C70008093BA0110929A0109C0803C09F4A6CF72
:100C8000883C09F4A3CF883B09F07DCFE091BB01FC
:100C900081E08E0F8093BB01F0E0E656FE4F80812D
:100CA0008093BB009091BB018091BA0129C08091D3
:100CB00003028093BB0085EC8093BC0064CF9091CD
:100CC000020280910102981758F5E091020281E03A
:100CD0008E0F80930202F0E0EF51FE4F8081E9CF4A
:100CE000E091020281E08E0F809302028091BB00AE
:100CF000F0E0EF51FE4F808390910202809101025B
:100D00009817C8F285E8D8CFE091020281E08E0FF3
:100D1000809302028091BB00F0E0EF51FE4F808390
:100D20008091E00181115CCF81E08093DF0184EA52
:100D30008093BC001092DE0126CF85EC8093BC002E
:100D40001092DE018091DC01803230F4E091DC0110
:100D5000F0E0E454FE4F10826091DC0170E0E0911D
:100D60000D02F0910E028CEB91E009951092DC01DE
:100D70000ACF1092DD0134CFE5E1F2E01382128256
:100D800088EE93E0A0E0B0E084839583A683B783E8
:100D900024E031E03183208325EC30E0358724875F
:100DA00024EC30E03787268720EC30E0318B208B35
:100DB00021EC30E0338B228B22EC30E0358B248B1E
:100DC00026EC30E0378B268B118E128E138E148E0C
:100DD000E2EBF2E01382128284839583A683B783C9
:100DE00086E191E091838083EEEBF2E01382128240
:100DF00088E291E09183808387E2848380E1818728
:100E000082E0828713860895789484B5826084BDD9
:100E100084B5816084BD85B5826085BD85B58160FE
:100E200085BD80916E00816080936E00109281007C
:100E30008091810082608093810080918100816037
:100E400080938100809180008160809380008091F8
:100E5000B10084608093B1008091B0008160809384
:100E6000B00080917A00846080937A0080917A004B
:100E7000826080937A0080917A00816080937A000A
:100E800080917A00806880937A001092C100E0918E
:100E90002502F091260282E08083E0912102F09108
:100EA00022021082E0912302F09124028FEC8083D1
:100EB00010922D02E0912902F0912A0286E08083AF
:100EC000E0912702F0912802808180618083E09187
:100ED0002702F0912802808188608083E0912702B8
:100EE000F0912802808180688083E0912702F09150
:100EF000280280818F7D8083109214021092130249
:100F000010921202109211020E94CA028CE890E024
:100F10009093100280930F028DE890E090930E0260
:100F200080930D021092C3028091C802823018F0A3
:100F300098E09093C3028093C60262E370E080E081
:100F400090E00E9471026091C9028EEB92E00E94D3
:100F50008F0368EE73E080E090E00E94710260E32E
:100F60008EEB92E00E94BF04CBE4D6E4CE01019761
:100F7000F1F760E38EEB92E00E94BF042197F1F756
:100F800060E38EEB92E00E94BF0483E592E001975C
:100F9000F1F760E28EEB92E00E94BF046091C30221
:100FA000606240E08EEB92E00E94D80484E080937F
:100FB000C40240E06CE08EEB92E00E94D80440E076
:100FC00061E08EEB92E00E94D804CBE3DFE1CE013A
:100FD0000197F1F782E08093C50240E066E08EEB76
:100FE00092E00E94D80440E062E08EEB92E00E9422
:100FF000D8042197F1F788E08093C90260E08EEB76
:1010000092E00E948F0360E089E00E941B0260E092
:1010100088E00E941B0260E086E00E941B0261E003
:1010200083E00E941B0261E08DE00E941B0261E0F0
:1010300087E00E941B0261E08BE00E941B0260E0DF
:101040008EE00E941B020E94EF0480E391E00E9468
:101050007A0489E391E00E947A04C0E400E010E0A1
:1010600086E00E94C401019709F052C00E94EF047B
:101070008CE391E00E947A0461E087E00E94ED0138
:1010800089E00E94C40161E0019709F049C084E051
:101090000E94ED0160E085E00E94ED0161E083E0E7
:1010A0000E94ED0188E00E94C40161E0019709F00F
:1010B00060E08DE00E94ED0168EE73E080E090E07A
:1010C0000E947102C0937C0080917A0080648093BA
:1010D0007A0080917A0086FDFCCF90917800809113
:1010E000790089279827892761E08D3B92400CF091
:1010F00060E08BE00E94ED010115110509F4B0CF0D
:101100000E94F800882309F4ABCF0E940000A8CF0A
:101110000E94EF0488E491E00E947A0460E0ADCF81
:1011200085E00E94ED0160E084E00E94ED0160E056
:10113000B6CFEE0FFF1F0590F491E02D0994F894BF
:02114000FFCFDF
:10114200000000002E018E00BB007B01EC00CA00F3
:10115200DE000000000060033303770409032C0360
:1011620019030A0300000000F5048E0077047604D8
:1011720078696E206368616F000D0A006D756120E9
:10118200726F69206B6961006B686F6E67206D75A5
:021192006100FA
:00000001FF
